:020000040000FA
:0400000026EF00F0F7
:100008005D82FACF01F0FBCF02F0F2AC0EEF00F008
:1000180010EF00F020EF00F076AC15EF00F017EFCE
:1000280000F020EF00F077AC1CEF00F01EEF00F0BE
:1000380020EF00F071EC0EF002C0FBFF01C0FAFFE8
:080048005D92110080EF0EF043
:0D0F00000044415441203D2025580A0000C6
:100F0E00000165BF8DEF07F08FEF07F090EF07F050
:100F1E005A9265BF9DEF07F0655106E16405D8B0A2
:100F2E009BEF07F09DEF07F0A3EF07F0000E386E72
:100F3E00010E376EA7EF07F064C037F065C038F0CA
:100F4E0062C039F063C03AF05AA8B0EF07F0B2EFC2
:100F5E0007F0B6EF07F0FE0E3926FF0E3A2222C03A
:100F6E003BF023C03CF024C03DF025C03EF026C02F
:100F7E003FF027C040F028C041F029C042F0000EDB
:100F8E00446E1F0E436E000E876F81EF08F043060E
:100F9E00D8A044060F0E3B14456E466A46BEE1EFDE
:100FAE0007F0465009E10A0E455CD8A0E1EF07F0C4
:100FBE00E3EF07F0EBEF07F0570E4524456E000EFA
:100FCE004620466EF1EF07F0300E4524456E000EBA
:100FDE004620466EBF0E2B6EFF0E2C6E2A502D6EC7
:100FEE002E6A2B502D262C502E222E500AE11A0E30
:100FFE002D5CD8A005EF08F008EF08F0010E09EF00
:10100E0008F0000E336E346A33503410D8B412EF39
:10101E0008F014EF08F044EF08F09F0E2B6EFF0E51
:10102E002C6E200E45102D6E000E46102E6E2B507F
:10103E002D262C502E222E500AE11A0E2D5CD8A0F1
:10104E002BEF08F02EEF08F0010E2FEF08F0000E38
:10105E00356E366A35503610D8B438EF08F03AEFA0
:10106E0008F044EF08F045C009F046C00AF027EC3E
:10107E000DF009C045F00AC046F0680E4324D96E43
:10108E00000E4420DA6E45C0DFFF3706D8A03806C2
:10109E003906D8A03A063BC02BF03CC02CF03DC020
:1010AE002DF03EC02EF03FC02FF040C030F041C0BA
:1010BE0031F042C032F0050E6EEF08F0D8903232A9
:1010CE00313230322F322E322D322C322B32E82E5C
:1010DE0065EF08F02BC03BF02CC03CF02DC03DF06E
:1010EE002EC03EF02FC03FF030C040F031C041F076
:1010FE0032C042F044BE8DEF08F0445009E1020EBA
:10110E00435CD8A08DEF08F08FEF08F0BFEF08F02A
:10111E003B503C103D103E103F104010411042100D
:10112E00D8A49CEF08F09EEF08F0CEEF07F038BE83
:10113E00ABEF08F0385006E13704D8B0A9EF08F04D
:10114E00ABEF08F0CEEF07F03ABEB6EF08F03A502C
:10115E0008E13904D8A0B6EF08F0B8EF08F0BFEFF9
:10116E0008F05AB2BDEF08F0BFEF08F0CEEF07F06F
:10117E005AA8C4EF08F0C6EF08F0DCEF08F04306FB
:10118E00D8A04406680E4324D96E000E4420DA6EB1
:10119E002AC0DFFF4306D8A04406680E4324D96E4A
:1011AE00000E4420DA6E300EDF6E20C015F021C026
:1011BE0016F0680E4324176E000E4420186E39C0C8
:1011CE0019F03AC01AF00DEC0CF015C020F016C054
:1011DE0021F01200000E186E60AEF8EF08F0FAEF74
:1011EE0008F086EF09F062A6FFEF08F001EF09F0B4
:1011FE0020EF09F016C0D9FF17C0DAFF020EDF6E1E
:10120E0064CF03F061CF04F062CF05F0635009ECB8
:10121E000BF020EE01F01650D9261750DA2203C03B
:10122E00DEFF04C0DEFF05C0DEFF06C0DEFF39EFC5
:10123E0009F016C0D9FF17C0DAFF010EDF6E62CFBC
:10124E0003F06150B9EC0CF020EE01F01650D926E7
:10125E001750DA2203C0DEFF04C0DEFF05C0DEFF3A
:10126E0006C0DEFF20EE05F01650D9261750DA2202
:10127E0065CFDFFF20EE06F01650D9261750DA2282
:10128E0066CFDFFF20EE07F01650D9261750DA2270
:10129E0067CFDFFF20EE08F01650D9261750DA225E
:1012AE0068CFDFFF20EE09F01650D9261750DA224C
:1012BE0069CFDFFF20EE0AF01650D9261750DA223A
:1012CE006ACFDFFF20EE0BF01650D9261750DA2228
:1012DE006BCFDFFF20EE0CF01650D9261750DA2216
:1012EE006CCFDFFF20EE0DF01650D9261750DA2204
:1012FE006DCFDFFF609E010E186E19EF0AF00F0121
:10130E0030AF8CEF09F08EEF09F019EF0AF032A72B
:10131E0093EF09F095EF09F0B4EF09F016C0D9FF7D
:10132E0017C0DAFF020EDF6E34CF03F031CF04F0B8
:10133E0032CF05F0335109EC0BF020EE01F01650D0
:10134E00D9261750DA2203C0DEFF04C0DEFF05C027
:10135E00DEFF06C0DEFFCDEF09F016C0D9FF17C0C5
:10136E00DAFF010EDF6E32CF03F03151B9EC0CF023
:10137E0020EE01F01650D9261750DA2203C0DEFFF8
:10138E0004C0DEFF05C0DEFF06C0DEFF20EE05F066
:10139E001650D9261750DA2235CFDFFF20EE06F091
:1013AE001650D9261750DA2236CFDFFF20EE07F07F
:1013BE001650D9261750DA2237CFDFFF20EE08F06D
:1013CE001650D9261750DA2238CFDFFF20EE09F05B
:1013DE001650D9261750DA2239CFDFFF20EE0AF049
:1013EE001650D9261750DA223ACFDFFF20EE0BF037
:1013FE001650D9261750DA223BCFDFFF20EE0CF025
:10140E001650D9261750DA223CCFDFFF20EE0DF012
:10141E001650D9261750DA223DCFDFFF0F01309F2D
:10142E0082EF09F01850120049C0D9FF4AC0DAFF06
:10143E00DECFF6FFDDCFF7FFF86A0800F550250A7C
:10144E00D8A42CEF0AF02EEF0AF0ECEF0AF049C008
:10145E00D9FF4AC0DAFFDE2A000EDD22000E00019F
:10146E00636F000E626F62C05AF063C05BF0646916
:10147E00656949C0D9FF4AC0DAFFDECFF6FFDDCF7E
:10148E00F7FFF86A0800F550780AD8B451EF0AF061
:10149E0053EF0AF066EF0AF049C0D9FF4AC0DAFFEF
:1014AE00DECFF6FFDDCFF7FFF86A0800F550580AD9
:1014BE00D8A464EF0AF066EF0AF0B5EF0AF049C05F
:1014CE00D9FF4AC0DAFFDECFF6FFDDCFF7FFF86AAD
:1014DE000800F5CF59F049C0D9FF4AC0DAFFDE2A1D
:1014EE00000EDD224BC0D9FF4CC0DAFFDFCF4DF02E
:1014FE00020EDE26DFCF4EF0000EDD224DC0D9FFEC
:10150E004EC0DAFFDECF4FF0DDCF50F04FC051F0BE
:10151E0050C052F0536A546A556A566A576A586AEE
:10152E0047C020F048C021F051C022F052C023F035
:10153E0053C024F054C025F055C026F056C027F0F5
:10154E0057C028F058C029F059C02AF087EC07F090
:10155E0020C047F021C048F008EF0BF049C0D9FF7A
:10156E004AC0DAFFDECFF6FFDDCFF7FFF86A0800DC
:10157E00F550250AD8A4C6EF0AF0C8EF0AF0DFEF3F
:10158E000AF049C0D9FF4AC0DAFFDE2A000EDD227A
:10159E00000E066E250E056E47C007F048C008F017
:1015AE006EEC0CF0000E486E010E476E08EF0BF05D
:1015BE0049C0D9FF4AC0DAFFDE2A000EDD22000E36
:1015CE00486E000E476E08EF0BF049C0D9FF4AC0B7
:1015DE00DAFFDECFF6FFDDCFF7FFF86A0800F55031
:1015EE00056E066A47C007F048C008F06EEC0CF0B6
:1015FE0049C0D9FF4AC0DAFFDE2A000EDD22D9EF3C
:10160E000AF012000B6E000E126E000E136E000E1C
:10161E00146E000E156E0550030B106E0538E84261
:10162E00070B116E0450076E086AD89007360836FD
:10163E00D89007360836D8900736083607C012F00D
:10164E0008C013F0000E13BEFF0E146E156E11506F
:10165E001224126E000E1320136E000E1420146E40
:10166E00000E1520156E12C007F013C008F014C03E
:10167E0009F015C00AF0020ED89007360836093662
:10168E000A36E82E43EF0BF007C012F008C013F035
:10169E0009C014F00AC015F010501224126E000E7C
:1016AE001320136E000E1420146E000E1520156EEE
:1016BE0012C008F013C009F014C00AF0076A07C080
:1016CE0012F008C013F009C014F00AC015F00B5048
:1016DE001224126E000E1320136E000E1420146EC0
:1016EE00000E1520156E12C008F013C009F014C0BC
:1016FE000AF0076A07C012F008C013F009C014F010
:10170E000AC015F003501224126E000E1320136E31
:10171E00000E1420146E000E1520156E12C00CF063
:10172E0013C00DF014C00EF015C00FF00CC003F076
:10173E000DC004F00EC005F00FC006F01200800EB2
:10174E006F6E6E50E00B800AD8A4B0EF0BF0B2EFC4
:10175E000BF0A8EF0BF0000E726E200E706E0E01E5
:10176E00FA69FB69F869E30EF96FFE69FF69FC69B6
:10177E00E30EFD6F000EE26F000EE36F160EE06FCC
:10178E00800EE16F000EE66F000EE76F000EE46F45
:10179E00000EE56F000EEA6F000EEB6F000EE86FA5
:1017AE00000EE96F000EEE6F000EEF6F000EEC6F85
:1017BE00000EED6F000EF26F000EF36F000EF06F65
:1017CE00000EF16F000EF66F000EF76F000EF46F45
:1017DE00000EF56F010E436FA80E446F010E456F9C
:1017EE00900E036E1D0E046EC1EC0EF0779C768C7F
:1017FE00000E6F6E6ECF05F0E00E0516D8A40AEF40
:10180E000CF00CEF0CF001EF0CF012005AA012EFDE
:10181E000CF014EF0CF01EEF0CF017C00EF018C009
:10182E000FF015C010F016C011F07FEC0DF01ABEBF
:10183E0023EF0CF025EF0CF02BEF0CF019C01EF07F
:10184E001AC01FF02FEF0CF0000E1F6E000E1E6E52
:10185E00000E1D6E000E1C6E41EF0CF0000E066E9B
:10186E00200E056E15C007F016C008F06EEC0CF0D9
:10187E001C4A1D2A1E501C5C1D50800A1B6E1F50D8
:10188E00800A1B58D8A04EEF0CF050EF0CF035EF3D
:10189E000CF05AB055EF0CF057EF0CF061EF0CF066
:1018AE0017C00EF018C00FF015C010F016C011F0D2
:1018BE007FEC0DF017C003F018C004F016EC0EF01C
:1018CE001E500324156E1F500420166E1200075072
:1018DE000810D8B475EF0CF077EF0CF080EF0CF029
:1018EE0007500810D8A47EEF0CF080EF0CF085EFB7
:1018FE000CF00550ADEC0EF0B8EF0CF020EE04F04D
:10190E000750D9260850DA22DE50DE10D8B492EFF6
:10191E000CF094EF0CF0AFEF0CF020EE04F007504B
:10192E00D9260850DA2210EE02F00750E1260850B0
:10193E00E222DE50E65CE650800A0D6EDE50800A32
:10194E000D58D8B0ADEF0CF0AFEF0CF0B8EF0CF0C7
:10195E0020EE02F00750D9260850DA22DE2A000EB9
:10196E00DD221200096E0950076E086AD8900736FC
:10197E000836D89007360836D8900736083607C08E
:10198E000EF008C00FF0000E0FBEFF0E106E116E9F
:10199E0003C007F0050E086ED8900732082ED3EF5D
:1019AE000CF007500E240E6E000E0F200F6E000E60
:1019BE001020106E000E1120116E0EC00AF00FC016
:1019CE000BF010C00CF011C00DF00AC003F00BC0EC
:1019DE0004F00CC005F00DC006F0120098C09CF08B
:1019EE0099C09DF0000E0001616F000E606F13EF45
:1019FE000DF096C047F097C048F09C0E496E000E51
:101A0E004A6E9AC04BF09BC04CF01BEC0AF047504C
:101A1E0000016027485061239CC0F6FF9DC0F7FF70
:101A2E00F86A0800F5500009D8A420EF0DF022EF57
:101A3E000DF000EF0DF060C096F061C097F012004F
:101A4E009F0E0B6EFF0E0C6E09C00DF00AC00EF04D
:101A5E000B500D260C500E220E500AE11A0E0D5C84
:101A6E00D8A03CEF0DF03FEF0DF0010E40EF0DF062
:101A7E00000E0F6E106A0F501010D8B449EF0DF013
:101A8E004BEF0DF051EF0DF05F0E0914096E0A6A5F
:101A9E0055EF0DF009C009F00AC00AF0120000015E
:101AAE008805D8A45DEF0DF05FEF0DF07EEF0DF021
:101ABE00B40E89198A118B118C11D8A469EF0DF00F
:101ACE006BEF0DF07EEF0DF0010E9E6F0F0E9F6F00
:101ADE008EC0A0F0A16B5DEC0EF000018EB17AEF1E
:101AEE000DF07DEF0DF082887EEF0DF082981200E2
:101AFE00000E146E000E136E90EF0DF012C005F076
:101B0E00066A10C007F011C008F06EEC0CF0134A14
:101B1E00142A13500E24D96E14500F20DA6EDF5093
:101B2E00126E1250D8A49EEF0DF0A0EF0DF085EFBF
:101B3E000DF01200080EA76E900EAB6E240EAC6E5A
:101B4E002A0EAF6E000E7D6E000E036E000E046E3A
:101B5E00B7EC0EF0000E036E000E046EB2EC0EF03B
:101B6E00000E036E000E046EBCEC0EF0000E5C6EEA
:101B7E0012009F0E056EFF0E066E200E0310076EEE
:101B8E00000E0410086E0550072606500822085055
:101B9E000AE11A0E075CD8A0D7EF0DF0DAEF0DF0C0
:101BAE00010EDBEF0DF0000E036E046A12009F0EA5
:101BBE00056EFF0E066E03C007F004C008F0055058
:101BCE0007260650082208500AE11A0E075CD8A014
:101BDE00F3EF0DF0F6EF0DF0010EF7EF0DF0000E36
:101BEE00036E046A1200BF0E056EFF0E066E03C072
:101BFE0007F004C008F005500726065008220850CA
:101C0E000AE11A0E075CD8A00FEF0EF012EF0EF0DD
:101C1E00010E13EF0EF0000E036E046A120003C0E5
:101C2E0005F004C006F01EEF0EF0034A042A03C0AE
:101C3E00D9FF04C0DAFFDF50D8A428EF0EF02AEF48
:101C4E000EF01CEF0EF00550035C036E06500458A8
:101C5E00046E120099EC0EF09498880E166E000E1B
:101C6E00176EF1EC08F00009D8B440EF0EF042EF19
:101C7E000EF034EF0EF056EC0DF034EF0EF026EFC2
:101C8E0000F0000E896E000E8A6E000E8B6EEF0E47
:101C9E00926EFB0E936EBF0E946E1F0E0F015D6F54
:101CAE00070E5C6F000E5B6FF18E1200A00E00012E
:101CBE00A46F000EA56F000E966F000E976F9EC05C
:101CCE0098F09FC099F0A40E9A6F000E9B6FF5ECE2
:101CDE000CF0120002D87EEF0EF00500FA6E000135
:101CEE006651FD6E6751FE6EFF6AFA501200779CC8
:101CFE00120000EE60F0360EEE6AE806FDE15C6A58
:101D0E005B6A5A6A5D905D92000131EF0EF0036ED0
:101D1E009EA894EF0EF096EF0EF08FEF0EF003C02C
:101D2E00ADFF1200C6EC0EF048EC0EF0A4EC0EF077
:101D3E00A1EC0DF0A6EC0BF01200600ED36E000EAF
:101D4E00D26E000E9B6E000E9A6E1200046E045040
:101D5E008EEC0EF0120003C0A8F004C0A9F0120021
:101D6E0003C0AAF004C0ABF0120003C0A6F004C07A
:101D7E00A7F0120003C066F004C067F01200D09EF8
:041D8E00120012002D
:020000040020DA
:08000000FFFFFFFFFFFFFFFF00
:020000040030CA
:0E00000015027F7CFF8991FF0FC00FE00F40BB
:00000001FF
